{
  "contractName": "TokenVesting",
  "abi": [
    {
      "inputs": [
        {
          "internalType": "uint256",
          "name": "_release_time",
          "type": "uint256"
        },
        {
          "internalType": "address",
          "name": "token_address",
          "type": "address"
        }
      ],
      "stateMutability": "nonpayable",
      "type": "constructor"
    },
    {
      "anonymous": false,
      "inputs": [
        {
          "indexed": false,
          "internalType": "address",
          "name": "to",
          "type": "address"
        },
        {
          "indexed": false,
          "internalType": "uint256",
          "name": "amount",
          "type": "uint256"
        }
      ],
      "name": "withdrawal",
      "type": "event"
    },
    {
      "stateMutability": "payable",
      "type": "fallback"
    },
    {
      "inputs": [],
      "name": "claimed",
      "outputs": [
        {
          "internalType": "uint256",
          "name": "",
          "type": "uint256"
        }
      ],
      "stateMutability": "view",
      "type": "function"
    },
    {
      "inputs": [],
      "name": "factor",
      "outputs": [
        {
          "internalType": "uint8",
          "name": "",
          "type": "uint8"
        }
      ],
      "stateMutability": "view",
      "type": "function"
    },
    {
      "inputs": [],
      "name": "initial_deposit",
      "outputs": [
        {
          "internalType": "uint256",
          "name": "",
          "type": "uint256"
        }
      ],
      "stateMutability": "view",
      "type": "function"
    },
    {
      "inputs": [],
      "name": "release_time",
      "outputs": [
        {
          "internalType": "uint256",
          "name": "",
          "type": "uint256"
        }
      ],
      "stateMutability": "view",
      "type": "function"
    },
    {
      "inputs": [],
      "name": "start_time",
      "outputs": [
        {
          "internalType": "uint256",
          "name": "",
          "type": "uint256"
        }
      ],
      "stateMutability": "view",
      "type": "function"
    },
    {
      "inputs": [],
      "name": "wallet",
      "outputs": [
        {
          "internalType": "address",
          "name": "",
          "type": "address"
        }
      ],
      "stateMutability": "view",
      "type": "function"
    },
    {
      "inputs": [],
      "name": "start_vesting",
      "outputs": [],
      "stateMutability": "nonpayable",
      "type": "function"
    },
    {
      "inputs": [
        {
          "internalType": "address",
          "name": "new_wallet",
          "type": "address"
        }
      ],
      "name": "set_wallet",
      "outputs": [],
      "stateMutability": "nonpayable",
      "type": "function"
    },
    {
      "inputs": [],
      "name": "pending_token",
      "outputs": [
        {
          "internalType": "uint256",
          "name": "",
          "type": "uint256"
        }
      ],
      "stateMutability": "view",
      "type": "function"
    },
    {
      "inputs": [],
      "name": "withdraw",
      "outputs": [],
      "stateMutability": "nonpayable",
      "type": "function"
    },
    {
      "inputs": [],
      "name": "get_balance",
      "outputs": [
        {
          "internalType": "uint256",
          "name": "",
          "type": "uint256"
        }
      ],
      "stateMutability": "view",
      "type": "function"
    },
    {
      "inputs": [],
      "name": "time_left",
      "outputs": [
        {
          "internalType": "uint256",
          "name": "",
          "type": "uint256"
        }
      ],
      "stateMutability": "view",
      "type": "function"
    }
  ],
  "bytecode": "0x60806040526002600360006101000a81548160ff021916908360ff1602179055503480156200002d57600080fd5b506040516200114b3803806200114b833981810160405281019062000053919062000118565b33600660006101000a81548173ffffffffffffffffffffffffffffffffffffffff021916908373ffffffffffffffffffffffffffffffffffffffff1602179055508160018190555042600281905550806000806101000a81548173ffffffffffffffffffffffffffffffffffffffff021916908373ffffffffffffffffffffffffffffffffffffffff1602179055505050620001cb565b600081519050620000fb8162000197565b92915050565b6000815190506200011281620001b1565b92915050565b600080604083850312156200012c57600080fd5b60006200013c8582860162000101565b92505060206200014f85828601620000ea565b9150509250929050565b600062000166826200016d565b9050919050565b600073ffffffffffffffffffffffffffffffffffffffff82169050919050565b6000819050919050565b620001a28162000159565b8114620001ae57600080fd5b50565b620001bc816200018d565b8114620001c857600080fd5b50565b610f7080620001db6000396000f3fe6080604052600436106100ab5760003560e01c806365d002f81161006457806365d002f814610189578063805f6dda146101b4578063834ee417146101df578063a3d569431461020a578063c1cfb99a14610235578063e834a83414610260576100ac565b8063084031f5146100b15780633ccfd60b146100c8578063484e4095146100df578063521eb2731461010857806352b31f081461013357806354f703f81461015e576100ac565b5b600080fd5b3480156100bd57600080fd5b506100c661028b565b005b3480156100d457600080fd5b506100dd610344565b005b3480156100eb57600080fd5b5061010660048036038101906101019190610b3a565b610755565b005b34801561011457600080fd5b5061011d610829565b60405161012a9190610c62565b60405180910390f35b34801561013f57600080fd5b5061014861084f565b6040516101559190610ce6565b60405180910390f35b34801561016a57600080fd5b50610173610855565b6040516101809190610d01565b60405180910390f35b34801561019557600080fd5b5061019e610868565b6040516101ab9190610ce6565b60405180910390f35b3480156101c057600080fd5b506101c96109c4565b6040516101d69190610ce6565b60405180910390f35b3480156101eb57600080fd5b506101f46109ca565b6040516102019190610ce6565b60405180910390f35b34801561021657600080fd5b5061021f6109d0565b60405161022c9190610ce6565b60405180910390f35b34801561024157600080fd5b5061024a6109ec565b6040516102579190610ce6565b60405180910390f35b34801561026c57600080fd5b50610275610a9d565b6040516102829190610ce6565b60405180910390f35b60008054906101000a900473ffffffffffffffffffffffffffffffffffffffff1673ffffffffffffffffffffffffffffffffffffffff166370a08231306040518263ffffffff1660e01b81526004016102e49190610c62565b60206040518083038186803b1580156102fc57600080fd5b505afa158015610310573d6000803e3d6000fd5b505050506040513d601f19601f820116820180604052508101906103349190610b8c565b6004819055506000600581905550565b600660009054906101000a900473ffffffffffffffffffffffffffffffffffffffff1673ffffffffffffffffffffffffffffffffffffffff163373ffffffffffffffffffffffffffffffffffffffff16146103d4576040517f08c379a00000000000000000000000000000000000000000000000000000000081526004016103cb90610ca6565b60405180910390fd5b60008060009054906101000a900473ffffffffffffffffffffffffffffffffffffffff1673ffffffffffffffffffffffffffffffffffffffff166370a08231306040518263ffffffff1660e01b81526004016104309190610c62565b60206040518083038186803b15801561044857600080fd5b505afa15801561045c573d6000803e3d6000fd5b505050506040513d601f19601f820116820180604052508101906104809190610b8c565b9050600081116104c5576040517f08c379a00000000000000000000000000000000000000000000000000000000081526004016104bc90610cc6565b60405180910390fd5b42600154106106265760006104d8610868565b90506104ef81600554610aa390919063ffffffff16565b60058190555060008054906101000a900473ffffffffffffffffffffffffffffffffffffffff1673ffffffffffffffffffffffffffffffffffffffff1663a9059cbb600660009054906101000a900473ffffffffffffffffffffffffffffffffffffffff16836040518363ffffffff1660e01b8152600401610572929190610c7d565b602060405180830381600087803b15801561058c57600080fd5b505af11580156105a0573d6000803e3d6000fd5b505050506040513d601f19601f820116820180604052508101906105c49190610b63565b507f5a6b26bafd3957bf06ea3b4915f51221953ed272573c779820e6e39df3e646cf600660009054906101000a900473ffffffffffffffffffffffffffffffffffffffff1682604051610618929190610c7d565b60405180910390a150610752565b60008054906101000a900473ffffffffffffffffffffffffffffffffffffffff1673ffffffffffffffffffffffffffffffffffffffff1663a9059cbb600660009054906101000a900473ffffffffffffffffffffffffffffffffffffffff16836040518363ffffffff1660e01b81526004016106a3929190610c7d565b602060405180830381600087803b1580156106bd57600080fd5b505af11580156106d1573d6000803e3d6000fd5b505050506040513d601f19601f820116820180604052508101906106f59190610b63565b507f5a6b26bafd3957bf06ea3b4915f51221953ed272573c779820e6e39df3e646cf600660009054906101000a900473ffffffffffffffffffffffffffffffffffffffff1682604051610749929190610c7d565b60405180910390a15b50565b600660009054906101000a900473ffffffffffffffffffffffffffffffffffffffff1673ffffffffffffffffffffffffffffffffffffffff163373ffffffffffffffffffffffffffffffffffffffff16146107e5576040517f08c379a00000000000000000000000000000000000000000000000000000000081526004016107dc90610ca6565b60405180910390fd5b80600660006101000a81548173ffffffffffffffffffffffffffffffffffffffff021916908373ffffffffffffffffffffffffffffffffffffffff16021790555050565b600660009054906101000a900473ffffffffffffffffffffffffffffffffffffffff1681565b60045481565b600360009054906101000a900460ff1681565b6000426001541061091557600061088c600254600154610ab990919063ffffffff16565b905060006108b7600360009054906101000a900460ff1660ff16600454610acf90919063ffffffff16565b905060006109086005546108fa856108ec6108dd60025442610ab990919063ffffffff16565b87610ae590919063ffffffff16565b610acf90919063ffffffff16565b610ab990919063ffffffff16565b90508093505050506109c1565b60008054906101000a900473ffffffffffffffffffffffffffffffffffffffff1673ffffffffffffffffffffffffffffffffffffffff166370a08231306040518263ffffffff1660e01b815260040161096e9190610c62565b60206040518083038186803b15801561098657600080fd5b505afa15801561099a573d6000803e3d6000fd5b505050506040513d601f19601f820116820180604052508101906109be9190610b8c565b90505b90565b60015481565b60025481565b60006109e742600154610ab990919063ffffffff16565b905090565b60008060009054906101000a900473ffffffffffffffffffffffffffffffffffffffff1673ffffffffffffffffffffffffffffffffffffffff166370a08231306040518263ffffffff1660e01b8152600401610a489190610c62565b60206040518083038186803b158015610a6057600080fd5b505afa158015610a74573d6000803e3d6000fd5b505050506040513d601f19601f82011682018060405250810190610a989190610b8c565b905090565b60055481565b60008183610ab19190610d2d565b905092915050565b60008183610ac79190610e0e565b905092915050565b60008183610add9190610d83565b905092915050565b60008183610af39190610db4565b905092915050565b600081359050610b0a81610ef5565b92915050565b600081519050610b1f81610f0c565b92915050565b600081519050610b3481610f23565b92915050565b600060208284031215610b4c57600080fd5b6000610b5a84828501610afb565b91505092915050565b600060208284031215610b7557600080fd5b6000610b8384828501610b10565b91505092915050565b600060208284031215610b9e57600080fd5b6000610bac84828501610b25565b91505092915050565b610bbe81610e42565b82525050565b6000610bd1601d83610d1c565b91507f4f6e6c792077616c6c6574206f776e65722063616e2063616c6c206d650000006000830152602082019050919050565b6000610c11600e83610d1c565b91507f456d70747920636f6e74726163740000000000000000000000000000000000006000830152602082019050919050565b610c4d81610e80565b82525050565b610c5c81610e8a565b82525050565b6000602082019050610c776000830184610bb5565b92915050565b6000604082019050610c926000830185610bb5565b610c9f6020830184610c44565b9392505050565b60006020820190508181036000830152610cbf81610bc4565b9050919050565b60006020820190508181036000830152610cdf81610c04565b9050919050565b6000602082019050610cfb6000830184610c44565b92915050565b6000602082019050610d166000830184610c53565b92915050565b600082825260208201905092915050565b6000610d3882610e80565b9150610d4383610e80565b9250827fffffffffffffffffffffffffffffffffffffffffffffffffffffffffffffffff03821115610d7857610d77610e97565b5b828201905092915050565b6000610d8e82610e80565b9150610d9983610e80565b925082610da957610da8610ec6565b5b828204905092915050565b6000610dbf82610e80565b9150610dca83610e80565b9250817fffffffffffffffffffffffffffffffffffffffffffffffffffffffffffffffff0483118215151615610e0357610e02610e97565b5b828202905092915050565b6000610e1982610e80565b9150610e2483610e80565b925082821015610e3757610e36610e97565b5b828203905092915050565b6000610e4d82610e60565b9050919050565b60008115159050919050565b600073ffffffffffffffffffffffffffffffffffffffff82169050919050565b6000819050919050565b600060ff82169050919050565b7f4e487b7100000000000000000000000000000000000000000000000000000000600052601160045260246000fd5b7f4e487b7100000000000000000000000000000000000000000000000000000000600052601260045260246000fd5b610efe81610e42565b8114610f0957600080fd5b50565b610f1581610e54565b8114610f2057600080fd5b50565b610f2c81610e80565b8114610f3757600080fd5b5056fea26469706673582212207b331409b424f55cf26c202ae0e4c67a7cc9fd0a4cf80a5272f68a44a78a332764736f6c63430008000033",
  "immutableReferences": {},
  "source": "pragma solidity 0.8.0;\n/*\n* Locking Pancakeswap token until release_time (expressed in Unix epoch time)\n* See https://www.unixtimestamp.com/ for conversion\n* + wallet migration possibilities (without locking removal)\n*/\nimport \"@openzeppelin/contracts/token/ERC20/IERC20.sol\";\nimport \"@openzeppelin/contracts/utils/math/SafeMath.sol\";\n\ncontract TokenVesting {\n\n    using SafeMath for uint256;\n\n    IERC20 kimj_contract;\n    uint256 public release_time;\n    uint256 public start_time;\n    uint8 public factor = 2;\n    uint256 public initial_deposit;\n    uint256 public claimed;\n    address public wallet;\n\n    event withdrawal(address to, uint256 amount);\n    \n    modifier onlyOwner {\n        require(msg.sender == wallet, \"Only wallet owner can call me\");\n        _;\n    }\n\n    constructor (uint256 _release_time, address token_address) public {\n        wallet = msg.sender;\n        release_time = _release_time;\n        start_time = block.timestamp;\n        kimj_contract = IERC20(token_address);\n    }\n\n    //every token transfered after starting the vesting can be\n    //withdraw at the end of the vesting period\n    function start_vesting () public {\n        initial_deposit = kimj_contract.balanceOf(address(this));\n        claimed = 0;\n    }\n\n    //combined with transfer of ownership for upgradibility -> multisig, swap, etc\n    //whatever those guys want to have as future governance\n    function set_wallet(address new_wallet) public onlyOwner {\n        wallet = new_wallet;\n    }\n\n    //number of token claimable in the contract balance\n    function pending_token() public view returns (uint256){\n        if(release_time >= block.timestamp) {\n            uint duration = release_time.sub(start_time);\n            uint total_vested = initial_deposit.div(factor);\n            uint pending = (total_vested.mul(block.timestamp.sub(start_time)).div(duration)).sub(claimed);\n            return pending;\n        }\n        else {\n            return kimj_contract.balanceOf(address(this));\n        }\n    }\n\n    function withdraw () public onlyOwner {\n\n        uint256 balance = kimj_contract.balanceOf(address(this));\n        require(balance > 0, \"Empty contract\");\n\n        if(release_time >= block.timestamp) { //before end of vesting\n          uint256 claimable = pending_token();\n          claimed = claimed.add(claimable);\n          kimj_contract.transfer(wallet, claimable);\n          emit withdrawal(wallet, claimable);\n        }\n\n        else { //end of vesting, cashout everything\n          kimj_contract.transfer(wallet, balance);\n          emit withdrawal(wallet, balance);\n        }\n    }\n    \n\n    function get_balance() public view returns (uint256) {\n        return kimj_contract.balanceOf(address(this));\n    }\n    \n    function time_left() public view returns (uint256) {\n        return release_time.sub(block.timestamp);\n    }\n\n    // shhh... Don't be so generous, keep your ethers/bnb\n    fallback() payable external {\n        revert();\n    }\n\n}\n",
  "sourcePath": "/home/drgorilla/Documents/solidity/token_vesting/contracts/TokenVesting.sol",
  "compiler": {
    "name": "solc",
    "version": "0.8.0+commit.c7dfd78e.Emscripten.clang"
  },
  "schemaVersion": "3.4.0",
  "updatedAt": "2021-05-12T16:04:40.993Z",
  "devdoc": {
    "kind": "dev",
    "methods": {},
    "version": 1
  },
  "userdoc": {
    "kind": "user",
    "methods": {},
    "version": 1
  }
}